{
  "_format": "hh-sol-artifact-1",
  "contractName": "LimaKijanja",
  "sourceName": "contracts/LimaKijanja.sol",
  "abi": [
    {
      "inputs": [],
      "stateMutability": "nonpayable",
      "type": "constructor"
    },
    {
      "anonymous": false,
      "inputs": [
        {
          "indexed": true,
          "internalType": "address",
          "name": "user",
          "type": "address"
        },
        {
          "indexed": false,
          "internalType": "string",
          "name": "action",
          "type": "string"
        },
        {
          "indexed": false,
          "internalType": "string",
          "name": "details",
          "type": "string"
        }
      ],
      "name": "TransactionEvent",
      "type": "event"
    },
    {
      "inputs": [
        {
          "internalType": "address",
          "name": "_userAddress",
          "type": "address"
        }
      ],
      "name": "Login",
      "outputs": [
        {
          "internalType": "string",
          "name": "",
          "type": "string"
        }
      ],
      "stateMutability": "view",
      "type": "function"
    },
    {
      "inputs": [
        {
          "internalType": "address",
          "name": "",
          "type": "address"
        }
      ],
      "name": "Productsmapping",
      "outputs": [
        {
          "internalType": "string",
          "name": "productName",
          "type": "string"
        },
        {
          "internalType": "string",
          "name": "productDescription",
          "type": "string"
        },
        {
          "internalType": "uint256",
          "name": "kilograms",
          "type": "uint256"
        },
        {
          "internalType": "uint256",
          "name": "price",
          "type": "uint256"
        },
        {
          "internalType": "address payable",
          "name": "owner",
          "type": "address"
        },
        {
          "internalType": "string",
          "name": "tag",
          "type": "string"
        }
      ],
      "stateMutability": "view",
      "type": "function"
    },
    {
      "inputs": [
        {
          "internalType": "address payable",
          "name": "_owner",
          "type": "address"
        },
        {
          "internalType": "uint256",
          "name": "_kilograms",
          "type": "uint256"
        }
      ],
      "name": "buyProduct",
      "outputs": [],
      "stateMutability": "payable",
      "type": "function"
    },
    {
      "inputs": [],
      "name": "getAllUsers",
      "outputs": [
        {
          "components": [
            {
              "internalType": "string",
              "name": "name",
              "type": "string"
            },
            {
              "internalType": "string",
              "name": "email",
              "type": "string"
            },
            {
              "internalType": "string",
              "name": "phoneNumber",
              "type": "string"
            },
            {
              "internalType": "string",
              "name": "location",
              "type": "string"
            },
            {
              "internalType": "address payable",
              "name": "walletAddress",
              "type": "address"
            }
          ],
          "internalType": "struct LimaKijanja.User[]",
          "name": "",
          "type": "tuple[]"
        }
      ],
      "stateMutability": "view",
      "type": "function"
    },
    {
      "inputs": [
        {
          "internalType": "string",
          "name": "_product",
          "type": "string"
        }
      ],
      "name": "getPricePerProduct",
      "outputs": [
        {
          "components": [
            {
              "internalType": "string",
              "name": "productName",
              "type": "string"
            },
            {
              "internalType": "uint256",
              "name": "min_Price",
              "type": "uint256"
            },
            {
              "internalType": "uint256",
              "name": "max_Price",
              "type": "uint256"
            }
          ],
          "internalType": "struct LimaKijanja.Price",
          "name": "",
          "type": "tuple"
        }
      ],
      "stateMutability": "view",
      "type": "function"
    },
    {
      "inputs": [],
      "name": "getTransactionRecords",
      "outputs": [
        {
          "components": [
            {
              "internalType": "string",
              "name": "action",
              "type": "string"
            },
            {
              "internalType": "string",
              "name": "details",
              "type": "string"
            },
            {
              "internalType": "uint256",
              "name": "timestamp",
              "type": "uint256"
            }
          ],
          "internalType": "struct LimaKijanja.TransactionRecord[]",
          "name": "",
          "type": "tuple[]"
        }
      ],
      "stateMutability": "view",
      "type": "function"
    },
    {
      "inputs": [],
      "name": "getTransactionsForUser",
      "outputs": [
        {
          "components": [
            {
              "internalType": "string",
              "name": "action",
              "type": "string"
            },
            {
              "internalType": "string",
              "name": "details",
              "type": "string"
            },
            {
              "internalType": "uint256",
              "name": "timestamp",
              "type": "uint256"
            }
          ],
          "internalType": "struct LimaKijanja.TransactionRecord[]",
          "name": "",
          "type": "tuple[]"
        }
      ],
      "stateMutability": "view",
      "type": "function"
    },
    {
      "inputs": [
        {
          "internalType": "address",
          "name": "_userAddress",
          "type": "address"
        }
      ],
      "name": "getUserInfo",
      "outputs": [
        {
          "components": [
            {
              "internalType": "string",
              "name": "name",
              "type": "string"
            },
            {
              "internalType": "string",
              "name": "email",
              "type": "string"
            },
            {
              "internalType": "string",
              "name": "phoneNumber",
              "type": "string"
            },
            {
              "internalType": "string",
              "name": "location",
              "type": "string"
            },
            {
              "internalType": "address payable",
              "name": "walletAddress",
              "type": "address"
            }
          ],
          "internalType": "struct LimaKijanja.User",
          "name": "",
          "type": "tuple"
        }
      ],
      "stateMutability": "view",
      "type": "function"
    },
    {
      "inputs": [],
      "name": "i_owner",
      "outputs": [
        {
          "internalType": "address",
          "name": "",
          "type": "address"
        }
      ],
      "stateMutability": "view",
      "type": "function"
    },
    {
      "inputs": [],
      "name": "logout",
      "outputs": [],
      "stateMutability": "nonpayable",
      "type": "function"
    },
    {
      "inputs": [
        {
          "internalType": "string",
          "name": "_productName",
          "type": "string"
        },
        {
          "internalType": "string",
          "name": "_productDescription",
          "type": "string"
        },
        {
          "internalType": "uint256",
          "name": "_kilograms",
          "type": "uint256"
        },
        {
          "internalType": "uint256",
          "name": "_price",
          "type": "uint256"
        },
        {
          "internalType": "string",
          "name": "_tag",
          "type": "string"
        }
      ],
      "name": "postProduct",
      "outputs": [],
      "stateMutability": "nonpayable",
      "type": "function"
    },
    {
      "inputs": [
        {
          "internalType": "string",
          "name": "",
          "type": "string"
        }
      ],
      "name": "productPricemapping",
      "outputs": [
        {
          "internalType": "string",
          "name": "productName",
          "type": "string"
        },
        {
          "internalType": "uint256",
          "name": "min_Price",
          "type": "uint256"
        },
        {
          "internalType": "uint256",
          "name": "max_Price",
          "type": "uint256"
        }
      ],
      "stateMutability": "view",
      "type": "function"
    },
    {
      "inputs": [
        {
          "internalType": "uint256",
          "name": "",
          "type": "uint256"
        }
      ],
      "name": "productPricesArray",
      "outputs": [
        {
          "internalType": "string",
          "name": "productName",
          "type": "string"
        },
        {
          "internalType": "uint256",
          "name": "min_Price",
          "type": "uint256"
        },
        {
          "internalType": "uint256",
          "name": "max_Price",
          "type": "uint256"
        }
      ],
      "stateMutability": "view",
      "type": "function"
    },
    {
      "inputs": [
        {
          "internalType": "uint256",
          "name": "",
          "type": "uint256"
        }
      ],
      "name": "productrArray",
      "outputs": [
        {
          "internalType": "string",
          "name": "productName",
          "type": "string"
        },
        {
          "internalType": "string",
          "name": "productDescription",
          "type": "string"
        },
        {
          "internalType": "uint256",
          "name": "kilograms",
          "type": "uint256"
        },
        {
          "internalType": "uint256",
          "name": "price",
          "type": "uint256"
        },
        {
          "internalType": "address payable",
          "name": "owner",
          "type": "address"
        },
        {
          "internalType": "string",
          "name": "tag",
          "type": "string"
        }
      ],
      "stateMutability": "view",
      "type": "function"
    },
    {
      "inputs": [
        {
          "internalType": "string",
          "name": "_name",
          "type": "string"
        },
        {
          "internalType": "string",
          "name": "_email",
          "type": "string"
        },
        {
          "internalType": "string",
          "name": "_phoneNumber",
          "type": "string"
        },
        {
          "internalType": "string",
          "name": "_location",
          "type": "string"
        },
        {
          "internalType": "address payable",
          "name": "_walletAddress",
          "type": "address"
        }
      ],
      "name": "register",
      "outputs": [],
      "stateMutability": "nonpayable",
      "type": "function"
    },
    {
      "inputs": [
        {
          "internalType": "address",
          "name": "_owner",
          "type": "address"
        },
        {
          "internalType": "uint256",
          "name": "_kilograms",
          "type": "uint256"
        }
      ],
      "name": "returnTotalPrice",
      "outputs": [
        {
          "internalType": "uint256",
          "name": "",
          "type": "uint256"
        }
      ],
      "stateMutability": "view",
      "type": "function"
    },
    {
      "inputs": [
        {
          "internalType": "uint256",
          "name": "_minPrice",
          "type": "uint256"
        },
        {
          "internalType": "uint256",
          "name": "_maxPrice",
          "type": "uint256"
        },
        {
          "internalType": "string",
          "name": "_productName",
          "type": "string"
        }
      ],
      "name": "setPrice",
      "outputs": [],
      "stateMutability": "nonpayable",
      "type": "function"
    },
    {
      "inputs": [
        {
          "internalType": "uint256",
          "name": "",
          "type": "uint256"
        }
      ],
      "name": "transactionRecords",
      "outputs": [
        {
          "internalType": "string",
          "name": "action",
          "type": "string"
        },
        {
          "internalType": "string",
          "name": "details",
          "type": "string"
        },
        {
          "internalType": "uint256",
          "name": "timestamp",
          "type": "uint256"
        }
      ],
      "stateMutability": "view",
      "type": "function"
    },
    {
      "inputs": [
        {
          "internalType": "uint256",
          "name": "",
          "type": "uint256"
        }
      ],
      "name": "userArray",
      "outputs": [
        {
          "internalType": "string",
          "name": "name",
          "type": "string"
        },
        {
          "internalType": "string",
          "name": "email",
          "type": "string"
        },
        {
          "internalType": "string",
          "name": "phoneNumber",
          "type": "string"
        },
        {
          "internalType": "string",
          "name": "location",
          "type": "string"
        },
        {
          "internalType": "address payable",
          "name": "walletAddress",
          "type": "address"
        }
      ],
      "stateMutability": "view",
      "type": "function"
    },
    {
      "inputs": [
        {
          "internalType": "address",
          "name": "",
          "type": "address"
        },
        {
          "internalType": "uint256",
          "name": "",
          "type": "uint256"
        }
      ],
      "name": "userTransactionsmapping",
      "outputs": [
        {
          "internalType": "string",
          "name": "action",
          "type": "string"
        },
        {
          "internalType": "string",
          "name": "details",
          "type": "string"
        },
        {
          "internalType": "uint256",
          "name": "timestamp",
          "type": "uint256"
        }
      ],
      "stateMutability": "view",
      "type": "function"
    },
    {
      "inputs": [],
      "name": "viewProducts",
      "outputs": [
        {
          "components": [
            {
              "internalType": "string",
              "name": "productName",
              "type": "string"
            },
            {
              "internalType": "string",
              "name": "productDescription",
              "type": "string"
            },
            {
              "internalType": "uint256",
              "name": "kilograms",
              "type": "uint256"
            },
            {
              "internalType": "uint256",
              "name": "price",
              "type": "uint256"
            },
            {
              "internalType": "address payable",
              "name": "owner",
              "type": "address"
            },
            {
              "internalType": "string",
              "name": "tag",
              "type": "string"
            }
          ],
          "internalType": "struct LimaKijanja.Product[]",
          "name": "",
          "type": "tuple[]"
        }
      ],
      "stateMutability": "view",
      "type": "function"
    }
  ],
  "bytecode": "0x60806040523480156200001157600080fd5b50336000806101000a81548173ffffffffffffffffffffffffffffffffffffffff021916908373ffffffffffffffffffffffffffffffffffffffff1602179055506040518060400160405280600581526020017f61646d696e000000000000000000000000000000000000000000000000000000815250600860008060009054906101000a900473ffffffffffffffffffffffffffffffffffffffff1673ffffffffffffffffffffffffffffffffffffffff1673ffffffffffffffffffffffffffffffffffffffff1681526020019081526020016000206001019081620000f991906200037a565b5062000461565b600081519050919050565b7f4e487b7100000000000000000000000000000000000000000000000000000000600052604160045260246000fd5b7f4e487b7100000000000000000000000000000000000000000000000000000000600052602260045260246000fd5b600060028204905060018216806200018257607f821691505b6020821081036200019857620001976200013a565b5b50919050565b60008190508160005260206000209050919050565b60006020601f8301049050919050565b600082821b905092915050565b600060088302620002027fffffffffffffffffffffffffffffffffffffffffffffffffffffffffffffffff82620001c3565b6200020e8683620001c3565b95508019841693508086168417925050509392505050565b6000819050919050565b6000819050919050565b60006200025b620002556200024f8462000226565b62000230565b62000226565b9050919050565b6000819050919050565b62000277836200023a565b6200028f620002868262000262565b848454620001d0565b825550505050565b600090565b620002a662000297565b620002b38184846200026c565b505050565b5b81811015620002db57620002cf6000826200029c565b600181019050620002b9565b5050565b601f8211156200032a57620002f4816200019e565b620002ff84620001b3565b810160208510156200030f578190505b620003276200031e85620001b3565b830182620002b8565b50505b505050565b600082821c905092915050565b60006200034f600019846008026200032f565b1980831691505092915050565b60006200036a83836200033c565b9150826002028217905092915050565b620003858262000100565b67ffffffffffffffff811115620003a157620003a06200010b565b5b620003ad825462000169565b620003ba828285620002df565b600060209050601f831160018114620003f25760008415620003dd578287015190505b620003e985826200035c565b86555062000459565b601f19841662000402866200019e565b60005b828110156200042c5784890151825560018201915060208501945060208101905062000405565b868310156200044c578489015162000448601f8916826200033c565b8355505b6001600288020188555050505b505050505050565b6143f880620004716000396000f3fe60806040526004361061012a5760003560e01c8063a887d748116100ab578063dba6335f1161006f578063dba6335f14610457578063dc03397014610482578063e2842d79146104ad578063ec5e6ca4146104d8578063eecc1c9514610501578063f9f24da11461053e5761012a565b8063a887d74814610341578063ad2925b814610380578063bf37ca01146103bd578063c34af088146103fc578063cddb8e941461043b5761012a565b80636830824a116100f25780636830824a146102485780636ee03bac1461027357806386576007146102b25780639470b756146102db578063a852287d146103185761012a565b80630dd9193d1461012f5780631f3c99c31461017157806341209af1146101885780634ff30aff146101c95780636386c1c71461020b575b600080fd5b34801561013b57600080fd5b5061015660048036038101906101519190612ed8565b610569565b60405161016896959493929190612fe5565b60405180910390f35b34801561017d57600080fd5b5061018661076d565b005b34801561019457600080fd5b506101af60048036038101906101aa9190612ed8565b61076f565b6040516101c095949392919061305b565b60405180910390f35b3480156101d557600080fd5b506101f060048036038101906101eb9190613108565b6109f5565b60405161020296959493929190612fe5565b60405180910390f35b34801561021757600080fd5b50610232600480360381019061022d9190613108565b610be9565b60405161023f9190613219565b60405180910390f35b34801561025457600080fd5b5061025d610ee0565b60405161026a9190613363565b60405180910390f35b34801561027f57600080fd5b5061029a60048036038101906102959190612ed8565b61106d565b6040516102a993929190613385565b60405180910390f35b3480156102be57600080fd5b506102d960048036038101906102d4919061352b565b6111b7565b005b3480156102e757600080fd5b5061030260048036038101906102fd9190613616565b611502565b60405161030f9190613656565b60405180910390f35b34801561032457600080fd5b5061033f600480360381019061033a9190613671565b61155f565b005b34801561034d57600080fd5b5061036860048036038101906103639190613740565b6119ab565b60405161037793929190613789565b60405180910390f35b34801561038c57600080fd5b506103a760048036038101906103a29190613740565b611a73565b6040516103b49190613817565b60405180910390f35b3480156103c957600080fd5b506103e460048036038101906103df9190612ed8565b611b51565b6040516103f393929190613789565b60405180910390f35b34801561040857600080fd5b50610423600480360381019061041e9190613616565b611c13565b60405161043293929190613385565b60405180910390f35b61045560048036038101906104509190613839565b611d6a565b005b34801561046357600080fd5b5061046c6122df565b6040516104799190613888565b60405180910390f35b34801561048e57600080fd5b50610497612303565b6040516104a49190613363565b60405180910390f35b3480156104b957600080fd5b506104c26124cd565b6040516104cf91906139f0565b60405180910390f35b3480156104e457600080fd5b506104ff60048036038101906104fa9190613a12565b6127ca565b005b34801561050d57600080fd5b5061052860048036038101906105239190613108565b61295b565b6040516105359190613a81565b60405180910390f35b34801561054a57600080fd5b50610553612a2f565b6040516105609190613bfc565b60405180910390f35b6002818154811061057957600080fd5b906000526020600020906006020160009150905080600001805461059c90613c4d565b80601f01602080910402602001604051908101604052809291908181526020018280546105c890613c4d565b80156106155780601f106105ea57610100808354040283529160200191610615565b820191906000526020600020905b8154815290600101906020018083116105f857829003601f168201915b50505050509080600101805461062a90613c4d565b80601f016020809104026020016040519081016040528092919081815260200182805461065690613c4d565b80156106a35780601f10610678576101008083540402835291602001916106a3565b820191906000526020600020905b81548152906001019060200180831161068657829003601f168201915b5050505050908060020154908060030154908060040160009054906101000a900473ffffffffffffffffffffffffffffffffffffffff16908060050180546106ea90613c4d565b80601f016020809104026020016040519081016040528092919081815260200182805461071690613c4d565b80156107635780601f1061073857610100808354040283529160200191610763565b820191906000526020600020905b81548152906001019060200180831161074657829003601f168201915b5050505050905086565b565b6003818154811061077f57600080fd5b90600052602060002090600502016000915090508060000180546107a290613c4d565b80601f01602080910402602001604051908101604052809291908181526020018280546107ce90613c4d565b801561081b5780601f106107f05761010080835404028352916020019161081b565b820191906000526020600020905b8154815290600101906020018083116107fe57829003601f168201915b50505050509080600101805461083090613c4d565b80601f016020809104026020016040519081016040528092919081815260200182805461085c90613c4d565b80156108a95780601f1061087e576101008083540402835291602001916108a9565b820191906000526020600020905b81548152906001019060200180831161088c57829003601f168201915b5050505050908060020180546108be90613c4d565b80601f01602080910402602001604051908101604052809291908181526020018280546108ea90613c4d565b80156109375780601f1061090c57610100808354040283529160200191610937565b820191906000526020600020905b81548152906001019060200180831161091a57829003601f168201915b50505050509080600301805461094c90613c4d565b80601f016020809104026020016040519081016040528092919081815260200182805461097890613c4d565b80156109c55780601f1061099a576101008083540402835291602001916109c5565b820191906000526020600020905b8154815290600101906020018083116109a857829003601f168201915b5050505050908060040160009054906101000a900473ffffffffffffffffffffffffffffffffffffffff16905085565b6006602052806000526040600020600091509050806000018054610a1890613c4d565b80601f0160208091040260200160405190810160405280929190818152602001828054610a4490613c4d565b8015610a915780601f10610a6657610100808354040283529160200191610a91565b820191906000526020600020905b815481529060010190602001808311610a7457829003601f168201915b505050505090806001018054610aa690613c4d565b80601f0160208091040260200160405190810160405280929190818152602001828054610ad290613c4d565b8015610b1f5780601f10610af457610100808354040283529160200191610b1f565b820191906000526020600020905b815481529060010190602001808311610b0257829003601f168201915b5050505050908060020154908060030154908060040160009054906101000a900473ffffffffffffffffffffffffffffffffffffffff1690806005018054610b6690613c4d565b80601f0160208091040260200160405190810160405280929190818152602001828054610b9290613c4d565b8015610bdf5780601f10610bb457610100808354040283529160200191610bdf565b820191906000526020600020905b815481529060010190602001808311610bc257829003601f168201915b5050505050905086565b610bf1612e28565b600960008373ffffffffffffffffffffffffffffffffffffffff1673ffffffffffffffffffffffffffffffffffffffff1681526020019081526020016000206040518060a0016040529081600082018054610c4b90613c4d565b80601f0160208091040260200160405190810160405280929190818152602001828054610c7790613c4d565b8015610cc45780601f10610c9957610100808354040283529160200191610cc4565b820191906000526020600020905b815481529060010190602001808311610ca757829003601f168201915b50505050508152602001600182018054610cdd90613c4d565b80601f0160208091040260200160405190810160405280929190818152602001828054610d0990613c4d565b8015610d565780601f10610d2b57610100808354040283529160200191610d56565b820191906000526020600020905b815481529060010190602001808311610d3957829003601f168201915b50505050508152602001600282018054610d6f90613c4d565b80601f0160208091040260200160405190810160405280929190818152602001828054610d9b90613c4d565b8015610de85780601f10610dbd57610100808354040283529160200191610de8565b820191906000526020600020905b815481529060010190602001808311610dcb57829003601f168201915b50505050508152602001600382018054610e0190613c4d565b80601f0160208091040260200160405190810160405280929190818152602001828054610e2d90613c4d565b8015610e7a5780601f10610e4f57610100808354040283529160200191610e7a565b820191906000526020600020905b815481529060010190602001808311610e5d57829003601f168201915b505050505081526020016004820160009054906101000a900473ffffffffffffffffffffffffffffffffffffffff1673ffffffffffffffffffffffffffffffffffffffff1673ffffffffffffffffffffffffffffffffffffffff16815250509050919050565b60606004805480602002602001604051908101604052809291908181526020016000905b828210156110645783829060005260206000209060030201604051806060016040529081600082018054610f3790613c4d565b80601f0160208091040260200160405190810160405280929190818152602001828054610f6390613c4d565b8015610fb05780601f10610f8557610100808354040283529160200191610fb0565b820191906000526020600020905b815481529060010190602001808311610f9357829003601f168201915b50505050508152602001600182018054610fc990613c4d565b80601f0160208091040260200160405190810160405280929190818152602001828054610ff590613c4d565b80156110425780601f1061101757610100808354040283529160200191611042565b820191906000526020600020905b81548152906001019060200180831161102557829003601f168201915b5050505050815260200160028201548152505081526020019060010190610f04565b50505050905090565b6004818154811061107d57600080fd5b90600052602060002090600302016000915090508060000180546110a090613c4d565b80601f01602080910402602001604051908101604052809291908181526020018280546110cc90613c4d565b80156111195780601f106110ee57610100808354040283529160200191611119565b820191906000526020600020905b8154815290600101906020018083116110fc57829003601f168201915b50505050509080600101805461112e90613c4d565b80601f016020809104026020016040519081016040528092919081815260200182805461115a90613c4d565b80156111a75780601f1061117c576101008083540402835291602001916111a7565b820191906000526020600020905b81548152906001019060200180831161118a57829003601f168201915b5050505050908060020154905083565b60008054906101000a900473ffffffffffffffffffffffffffffffffffffffff1673ffffffffffffffffffffffffffffffffffffffff163373ffffffffffffffffffffffffffffffffffffffff1614611245576040517f08c379a000000000000000000000000000000000000000000000000000000000815260040161123c90613cf0565b60405180910390fd5b60006040518060a001604052808781526020018681526020018581526020018481526020018373ffffffffffffffffffffffffffffffffffffffff168152509050600381908060018154018082558091505060019003906000526020600020906005020160009091909190915060008201518160000190816112c79190613ebc565b5060208201518160010190816112dd9190613ebc565b5060408201518160020190816112f39190613ebc565b5060608201518160030190816113099190613ebc565b5060808201518160040160006101000a81548173ffffffffffffffffffffffffffffffffffffffff021916908373ffffffffffffffffffffffffffffffffffffffff160217905550505080600960008473ffffffffffffffffffffffffffffffffffffffff1673ffffffffffffffffffffffffffffffffffffffff16815260200190815260200160002060008201518160000190816113a89190613ebc565b5060208201518160010190816113be9190613ebc565b5060408201518160020190816113d49190613ebc565b5060608201518160030190816113ea9190613ebc565b5060808201518160040160006101000a81548173ffffffffffffffffffffffffffffffffffffffff021916908373ffffffffffffffffffffffffffffffffffffffff1602179055509050506040518060400160405280600481526020017f7573657200000000000000000000000000000000000000000000000000000000815250600860008473ffffffffffffffffffffffffffffffffffffffff1673ffffffffffffffffffffffffffffffffffffffff16815260200190815260200160002060010190816114b99190613ebc565b506114fa336040518060400160405280600881526020017f416464205573657200000000000000000000000000000000000000000000000081525088612cae565b505050505050565b600080600660008573ffffffffffffffffffffffffffffffffffffffff1673ffffffffffffffffffffffffffffffffffffffff16815260200190815260200160002060030154836115539190613fbd565b90508091505092915050565b6000805b600380549050811015611604573373ffffffffffffffffffffffffffffffffffffffff166003828154811061159b5761159a613fff565b5b906000526020600020906005020160040160009054906101000a900473ffffffffffffffffffffffffffffffffffffffff1673ffffffffffffffffffffffffffffffffffffffff16036115f15760019150611604565b80806115fc9061402e565b915050611563565b5080611645576040517f08c379a000000000000000000000000000000000000000000000000000000000815260040161163c906140e8565b60405180910390fd5b60006005876040516116579190614144565b908152602001604051809103902060405180606001604052908160008201805461168090613c4d565b80601f01602080910402602001604051908101604052809291908181526020018280546116ac90613c4d565b80156116f95780601f106116ce576101008083540402835291602001916116f9565b820191906000526020600020905b8154815290600101906020018083116116dc57829003601f168201915b5050505050815260200160018201548152602001600282015481525050905080602001518410158015611730575080604001518411155b61176f576040517f08c379a0000000000000000000000000000000000000000000000000000000008152600401611766906141f3565b60405180910390fd5b60006040518060c001604052808981526020018881526020018781526020018681526020013373ffffffffffffffffffffffffffffffffffffffff168152602001858152509050600281908060018154018082558091505060019003906000526020600020906006020160009091909190915060008201518160000190816117f79190613ebc565b50602082015181600101908161180d9190613ebc565b50604082015181600201556060820151816003015560808201518160040160006101000a81548173ffffffffffffffffffffffffffffffffffffffff021916908373ffffffffffffffffffffffffffffffffffffffff16021790555060a082015181600501908161187e9190613ebc565b50505080600660003373ffffffffffffffffffffffffffffffffffffffff1673ffffffffffffffffffffffffffffffffffffffff16815260200190815260200160002060008201518160000190816118d69190613ebc565b5060208201518160010190816118ec9190613ebc565b50604082015181600201556060820151816003015560808201518160040160006101000a81548173ffffffffffffffffffffffffffffffffffffffff021916908373ffffffffffffffffffffffffffffffffffffffff16021790555060a082015181600501908161195d9190613ebc565b509050506119a1336040518060400160405280600c81526020017f506f73742050726f6475637400000000000000000000000000000000000000008152508a612cae565b5050505050505050565b6005818051602081018201805184825260208301602085012081835280955050505050506000915090508060000180546119e490613c4d565b80601f0160208091040260200160405190810160405280929190818152602001828054611a1090613c4d565b8015611a5d5780601f10611a3257610100808354040283529160200191611a5d565b820191906000526020600020905b815481529060010190602001808311611a4057829003601f168201915b5050505050908060010154908060020154905083565b611a7b612e6d565b600582604051611a8b9190614144565b9081526020016040518091039020604051806060016040529081600082018054611ab490613c4d565b80601f0160208091040260200160405190810160405280929190818152602001828054611ae090613c4d565b8015611b2d5780601f10611b0257610100808354040283529160200191611b2d565b820191906000526020600020905b815481529060010190602001808311611b1057829003601f168201915b50505050508152602001600182015481526020016002820154815250509050919050565b60018181548110611b6157600080fd5b9060005260206000209060030201600091509050806000018054611b8490613c4d565b80601f0160208091040260200160405190810160405280929190818152602001828054611bb090613c4d565b8015611bfd5780601f10611bd257610100808354040283529160200191611bfd565b820191906000526020600020905b815481529060010190602001808311611be057829003601f168201915b5050505050908060010154908060020154905083565b60076020528160005260406000208181548110611c2f57600080fd5b906000526020600020906003020160009150915050806000018054611c5390613c4d565b80601f0160208091040260200160405190810160405280929190818152602001828054611c7f90613c4d565b8015611ccc5780601f10611ca157610100808354040283529160200191611ccc565b820191906000526020600020905b815481529060010190602001808311611caf57829003601f168201915b505050505090806001018054611ce190613c4d565b80601f0160208091040260200160405190810160405280929190818152602001828054611d0d90613c4d565b8015611d5a5780601f10611d2f57610100808354040283529160200191611d5a565b820191906000526020600020905b815481529060010190602001808311611d3d57829003601f168201915b5050505050908060020154905083565b6000805b600380549050811015611e0f573373ffffffffffffffffffffffffffffffffffffffff1660038281548110611da657611da5613fff565b5b906000526020600020906005020160040160009054906101000a900473ffffffffffffffffffffffffffffffffffffffff1673ffffffffffffffffffffffffffffffffffffffff1603611dfc5760019150611e0f565b8080611e079061402e565b915050611d6e565b5080611e50576040517f08c379a0000000000000000000000000000000000000000000000000000000008152600401611e47906140e8565b60405180910390fd5b600660008473ffffffffffffffffffffffffffffffffffffffff1673ffffffffffffffffffffffffffffffffffffffff16815260200190815260200160002060020154821115611ed5576040517f08c379a0000000000000000000000000000000000000000000000000000000008152600401611ecc9061425f565b60405180910390fd5b600073ffffffffffffffffffffffffffffffffffffffff168373ffffffffffffffffffffffffffffffffffffffff1603611f44576040517f08c379a0000000000000000000000000000000000000000000000000000000008152600401611f3b906142cb565b60405180910390fd5b81600660008573ffffffffffffffffffffffffffffffffffffffff1673ffffffffffffffffffffffffffffffffffffffff1681526020019081526020016000206002016000828254611f9691906142eb565b9250508190555060005b6002805490508110156120a5578373ffffffffffffffffffffffffffffffffffffffff1660028281548110611fd857611fd7613fff565b5b906000526020600020906006020160040160009054906101000a900473ffffffffffffffffffffffffffffffffffffffff1673ffffffffffffffffffffffffffffffffffffffff160361209257600660008573ffffffffffffffffffffffffffffffffffffffff1673ffffffffffffffffffffffffffffffffffffffff168152602001908152602001600020600201546002828154811061207c5761207b613fff565b5b9060005260206000209060060201600201819055505b808061209d9061402e565b915050611fa0565b506000600660008573ffffffffffffffffffffffffffffffffffffffff1673ffffffffffffffffffffffffffffffffffffffff16815260200190815260200160002060030154836120f69190613fbd565b9050600660008573ffffffffffffffffffffffffffffffffffffffff1673ffffffffffffffffffffffffffffffffffffffff16815260200190815260200160002060030154836121469190613fbd565b811015612188576040517f08c379a000000000000000000000000000000000000000000000000000000000815260040161217f9061436b565b60405180910390fd5b8373ffffffffffffffffffffffffffffffffffffffff166108fc829081150290604051600060405180830381858888f193505050501580156121ce573d6000803e3d6000fd5b506122d9336040518060400160405280600b81526020017f4275792050726f64756374000000000000000000000000000000000000000000815250600660008873ffffffffffffffffffffffffffffffffffffffff1673ffffffffffffffffffffffffffffffffffffffff168152602001908152602001600020600001805461225690613c4d565b80601f016020809104026020016040519081016040528092919081815260200182805461228290613c4d565b80156122cf5780601f106122a4576101008083540402835291602001916122cf565b820191906000526020600020905b8154815290600101906020018083116122b257829003601f168201915b5050505050612cae565b50505050565b60008054906101000a900473ffffffffffffffffffffffffffffffffffffffff1681565b6060600760003373ffffffffffffffffffffffffffffffffffffffff1673ffffffffffffffffffffffffffffffffffffffff168152602001908152602001600020805480602002602001604051908101604052809291908181526020016000905b828210156124c4578382906000526020600020906003020160405180606001604052908160008201805461239790613c4d565b80601f01602080910402602001604051908101604052809291908181526020018280546123c390613c4d565b80156124105780601f106123e557610100808354040283529160200191612410565b820191906000526020600020905b8154815290600101906020018083116123f357829003601f168201915b5050505050815260200160018201805461242990613c4d565b80601f016020809104026020016040519081016040528092919081815260200182805461245590613c4d565b80156124a25780601f10612477576101008083540402835291602001916124a2565b820191906000526020600020905b81548152906001019060200180831161248557829003601f168201915b5050505050815260200160028201548152505081526020019060010190612364565b50505050905090565b60606003805480602002602001604051908101604052809291908181526020016000905b828210156127c157838290600052602060002090600502016040518060a001604052908160008201805461252490613c4d565b80601f016020809104026020016040519081016040528092919081815260200182805461255090613c4d565b801561259d5780601f106125725761010080835404028352916020019161259d565b820191906000526020600020905b81548152906001019060200180831161258057829003601f168201915b505050505081526020016001820180546125b690613c4d565b80601f01602080910402602001604051908101604052809291908181526020018280546125e290613c4d565b801561262f5780601f106126045761010080835404028352916020019161262f565b820191906000526020600020905b81548152906001019060200180831161261257829003601f168201915b5050505050815260200160028201805461264890613c4d565b80601f016020809104026020016040519081016040528092919081815260200182805461267490613c4d565b80156126c15780601f10612696576101008083540402835291602001916126c1565b820191906000526020600020905b8154815290600101906020018083116126a457829003601f168201915b505050505081526020016003820180546126da90613c4d565b80601f016020809104026020016040519081016040528092919081815260200182805461270690613c4d565b80156127535780601f1061272857610100808354040283529160200191612753565b820191906000526020600020905b81548152906001019060200180831161273657829003601f168201915b505050505081526020016004820160009054906101000a900473ffffffffffffffffffffffffffffffffffffffff1673ffffffffffffffffffffffffffffffffffffffff1673ffffffffffffffffffffffffffffffffffffffff1681525050815260200190600101906124f1565b50505050905090565b60008054906101000a900473ffffffffffffffffffffffffffffffffffffffff1673ffffffffffffffffffffffffffffffffffffffff163373ffffffffffffffffffffffffffffffffffffffff1614612858576040517f08c379a000000000000000000000000000000000000000000000000000000000815260040161284f90613cf0565b60405180910390fd5b600060058260405161286a9190614144565b9081526020016040518091039020905060008160010154148015612892575060008160020154145b15612902576040518060600160405280838152602001858152602001848152506005836040516128c29190614144565b908152602001604051809103902060008201518160000190816128e59190613ebc565b506020820151816001015560408201518160020155905050612915565b8381600101819055508281600201819055505b612955336040518060400160405280600981526020017f536574205072696365000000000000000000000000000000000000000000000081525084612cae565b50505050565b6060600860008373ffffffffffffffffffffffffffffffffffffffff1673ffffffffffffffffffffffffffffffffffffffff16815260200190815260200160002060010180546129aa90613c4d565b80601f01602080910402602001604051908101604052809291908181526020018280546129d690613c4d565b8015612a235780601f106129f857610100808354040283529160200191612a23565b820191906000526020600020905b815481529060010190602001808311612a0657829003601f168201915b50505050509050919050565b60606002805480602002602001604051908101604052809291908181526020016000905b82821015612ca557838290600052602060002090600602016040518060c0016040529081600082018054612a8690613c4d565b80601f0160208091040260200160405190810160405280929190818152602001828054612ab290613c4d565b8015612aff5780601f10612ad457610100808354040283529160200191612aff565b820191906000526020600020905b815481529060010190602001808311612ae257829003601f168201915b50505050508152602001600182018054612b1890613c4d565b80601f0160208091040260200160405190810160405280929190818152602001828054612b4490613c4d565b8015612b915780601f10612b6657610100808354040283529160200191612b91565b820191906000526020600020905b815481529060010190602001808311612b7457829003601f168201915b5050505050815260200160028201548152602001600382015481526020016004820160009054906101000a900473ffffffffffffffffffffffffffffffffffffffff1673ffffffffffffffffffffffffffffffffffffffff1673ffffffffffffffffffffffffffffffffffffffff168152602001600582018054612c1490613c4d565b80601f0160208091040260200160405190810160405280929190818152602001828054612c4090613c4d565b8015612c8d5780601f10612c6257610100808354040283529160200191612c8d565b820191906000526020600020905b815481529060010190602001808311612c7057829003601f168201915b50505050508152505081526020019060010190612a53565b50505050905090565b6000604051806060016040528084815260200183815260200142815250905060048190806001815401808255809150506001900390600052602060002090600302016000909190919091506000820151816000019081612d0e9190613ebc565b506020820151816001019081612d249190613ebc565b50604082015181600201555050600760008573ffffffffffffffffffffffffffffffffffffffff1673ffffffffffffffffffffffffffffffffffffffff1681526020019081526020016000208190806001815401808255809150506001900390600052602060002090600302016000909190919091506000820151816000019081612daf9190613ebc565b506020820151816001019081612dc59190613ebc565b506040820151816002015550508373ffffffffffffffffffffffffffffffffffffffff167fb4797556ab69160a38307605f1c2b3cabd741f55a562c3e47255d5eee2bf228b8484604051612e1a92919061438b565b60405180910390a250505050565b6040518060a0016040528060608152602001606081526020016060815260200160608152602001600073ffffffffffffffffffffffffffffffffffffffff1681525090565b60405180606001604052806060815260200160008152602001600081525090565b6000604051905090565b600080fd5b600080fd5b6000819050919050565b612eb581612ea2565b8114612ec057600080fd5b50565b600081359050612ed281612eac565b92915050565b600060208284031215612eee57612eed612e98565b5b6000612efc84828501612ec3565b91505092915050565b600081519050919050565b600082825260208201905092915050565b60005b83811015612f3f578082015181840152602081019050612f24565b60008484015250505050565b6000601f19601f8301169050919050565b6000612f6782612f05565b612f718185612f10565b9350612f81818560208601612f21565b612f8a81612f4b565b840191505092915050565b612f9e81612ea2565b82525050565b600073ffffffffffffffffffffffffffffffffffffffff82169050919050565b6000612fcf82612fa4565b9050919050565b612fdf81612fc4565b82525050565b600060c0820190508181036000830152612fff8189612f5c565b905081810360208301526130138188612f5c565b90506130226040830187612f95565b61302f6060830186612f95565b61303c6080830185612fd6565b81810360a083015261304e8184612f5c565b9050979650505050505050565b600060a08201905081810360008301526130758188612f5c565b905081810360208301526130898187612f5c565b9050818103604083015261309d8186612f5c565b905081810360608301526130b18185612f5c565b90506130c06080830184612fd6565b9695505050505050565b60006130d582612fa4565b9050919050565b6130e5816130ca565b81146130f057600080fd5b50565b600081359050613102816130dc565b92915050565b60006020828403121561311e5761311d612e98565b5b600061312c848285016130f3565b91505092915050565b600082825260208201905092915050565b600061315182612f05565b61315b8185613135565b935061316b818560208601612f21565b61317481612f4b565b840191505092915050565b61318881612fc4565b82525050565b600060a08301600083015184820360008601526131ab8282613146565b915050602083015184820360208601526131c58282613146565b915050604083015184820360408601526131df8282613146565b915050606083015184820360608601526131f98282613146565b915050608083015161320e608086018261317f565b508091505092915050565b60006020820190508181036000830152613233818461318e565b905092915050565b600081519050919050565b600082825260208201905092915050565b6000819050602082019050919050565b61327081612ea2565b82525050565b600060608301600083015184820360008601526132938282613146565b915050602083015184820360208601526132ad8282613146565b91505060408301516132c26040860182613267565b508091505092915050565b60006132d98383613276565b905092915050565b6000602082019050919050565b60006132f98261323b565b6133038185613246565b93508360208202850161331585613257565b8060005b85811015613351578484038952815161333285826132cd565b945061333d836132e1565b925060208a01995050600181019050613319565b50829750879550505050505092915050565b6000602082019050818103600083015261337d81846132ee565b905092915050565b6000606082019050818103600083015261339f8186612f5c565b905081810360208301526133b38185612f5c565b90506133c26040830184612f95565b949350505050565b600080fd5b600080fd5b7f4e487b7100000000000000000000000000000000000000000000000000000000600052604160045260246000fd5b61340c82612f4b565b810181811067ffffffffffffffff8211171561342b5761342a6133d4565b5b80604052505050565b600061343e612e8e565b905061344a8282613403565b919050565b600067ffffffffffffffff82111561346a576134696133d4565b5b61347382612f4b565b9050602081019050919050565b82818337600083830152505050565b60006134a261349d8461344f565b613434565b9050828152602081018484840111156134be576134bd6133cf565b5b6134c9848285613480565b509392505050565b600082601f8301126134e6576134e56133ca565b5b81356134f684826020860161348f565b91505092915050565b61350881612fc4565b811461351357600080fd5b50565b600081359050613525816134ff565b92915050565b600080600080600060a0868803121561354757613546612e98565b5b600086013567ffffffffffffffff81111561356557613564612e9d565b5b613571888289016134d1565b955050602086013567ffffffffffffffff81111561359257613591612e9d565b5b61359e888289016134d1565b945050604086013567ffffffffffffffff8111156135bf576135be612e9d565b5b6135cb888289016134d1565b935050606086013567ffffffffffffffff8111156135ec576135eb612e9d565b5b6135f8888289016134d1565b925050608061360988828901613516565b9150509295509295909350565b6000806040838503121561362d5761362c612e98565b5b600061363b858286016130f3565b925050602061364c85828601612ec3565b9150509250929050565b600060208201905061366b6000830184612f95565b92915050565b600080600080600060a0868803121561368d5761368c612e98565b5b600086013567ffffffffffffffff8111156136ab576136aa612e9d565b5b6136b7888289016134d1565b955050602086013567ffffffffffffffff8111156136d8576136d7612e9d565b5b6136e4888289016134d1565b94505060406136f588828901612ec3565b935050606061370688828901612ec3565b925050608086013567ffffffffffffffff81111561372757613726612e9d565b5b613733888289016134d1565b9150509295509295909350565b60006020828403121561375657613755612e98565b5b600082013567ffffffffffffffff81111561377457613773612e9d565b5b613780848285016134d1565b91505092915050565b600060608201905081810360008301526137a38186612f5c565b90506137b26020830185612f95565b6137bf6040830184612f95565b949350505050565b600060608301600083015184820360008601526137e48282613146565b91505060208301516137f96020860182613267565b50604083015161380c6040860182613267565b508091505092915050565b6000602082019050818103600083015261383181846137c7565b905092915050565b600080604083850312156138505761384f612e98565b5b600061385e85828601613516565b925050602061386f85828601612ec3565b9150509250929050565b613882816130ca565b82525050565b600060208201905061389d6000830184613879565b92915050565b600081519050919050565b600082825260208201905092915050565b6000819050602082019050919050565b600060a08301600083015184820360008601526138ec8282613146565b915050602083015184820360208601526139068282613146565b915050604083015184820360408601526139208282613146565b9150506060830151848203606086015261393a8282613146565b915050608083015161394f608086018261317f565b508091505092915050565b600061396683836138cf565b905092915050565b6000602082019050919050565b6000613986826138a3565b61399081856138ae565b9350836020820285016139a2856138bf565b8060005b858110156139de57848403895281516139bf858261395a565b94506139ca8361396e565b925060208a019950506001810190506139a6565b50829750879550505050505092915050565b60006020820190508181036000830152613a0a818461397b565b905092915050565b600080600060608486031215613a2b57613a2a612e98565b5b6000613a3986828701612ec3565b9350506020613a4a86828701612ec3565b925050604084013567ffffffffffffffff811115613a6b57613a6a612e9d565b5b613a77868287016134d1565b9150509250925092565b60006020820190508181036000830152613a9b8184612f5c565b905092915050565b600081519050919050565b600082825260208201905092915050565b6000819050602082019050919050565b600060c0830160008301518482036000860152613aec8282613146565b91505060208301518482036020860152613b068282613146565b9150506040830151613b1b6040860182613267565b506060830151613b2e6060860182613267565b506080830151613b41608086018261317f565b5060a083015184820360a0860152613b598282613146565b9150508091505092915050565b6000613b728383613acf565b905092915050565b6000602082019050919050565b6000613b9282613aa3565b613b9c8185613aae565b935083602082028501613bae85613abf565b8060005b85811015613bea5784840389528151613bcb8582613b66565b9450613bd683613b7a565b925060208a01995050600181019050613bb2565b50829750879550505050505092915050565b60006020820190508181036000830152613c168184613b87565b905092915050565b7f4e487b7100000000000000000000000000000000000000000000000000000000600052602260045260246000fd5b60006002820490506001821680613c6557607f821691505b602082108103613c7857613c77613c1e565b5b50919050565b7f4f6e6c7920746865206f776e65722063616e2063616c6c20746869732066756e60008201527f6374696f6e000000000000000000000000000000000000000000000000000000602082015250565b6000613cda602583612f10565b9150613ce582613c7e565b604082019050919050565b60006020820190508181036000830152613d0981613ccd565b9050919050565b60008190508160005260206000209050919050565b60006020601f8301049050919050565b600082821b905092915050565b600060088302613d727fffffffffffffffffffffffffffffffffffffffffffffffffffffffffffffffff82613d35565b613d7c8683613d35565b95508019841693508086168417925050509392505050565b6000819050919050565b6000613db9613db4613daf84612ea2565b613d94565b612ea2565b9050919050565b6000819050919050565b613dd383613d9e565b613de7613ddf82613dc0565b848454613d42565b825550505050565b600090565b613dfc613def565b613e07818484613dca565b505050565b5b81811015613e2b57613e20600082613df4565b600181019050613e0d565b5050565b601f821115613e7057613e4181613d10565b613e4a84613d25565b81016020851015613e59578190505b613e6d613e6585613d25565b830182613e0c565b50505b505050565b600082821c905092915050565b6000613e9360001984600802613e75565b1980831691505092915050565b6000613eac8383613e82565b9150826002028217905092915050565b613ec582612f05565b67ffffffffffffffff811115613ede57613edd6133d4565b5b613ee88254613c4d565b613ef3828285613e2f565b600060209050601f831160018114613f265760008415613f14578287015190505b613f1e8582613ea0565b865550613f86565b601f198416613f3486613d10565b60005b82811015613f5c57848901518255600182019150602085019450602081019050613f37565b86831015613f795784890151613f75601f891682613e82565b8355505b6001600288020188555050505b505050505050565b7f4e487b7100000000000000000000000000000000000000000000000000000000600052601160045260246000fd5b6000613fc882612ea2565b9150613fd383612ea2565b9250828202613fe181612ea2565b91508282048414831517613ff857613ff7613f8e565b5b5092915050565b7f4e487b7100000000000000000000000000000000000000000000000000000000600052603260045260246000fd5b600061403982612ea2565b91507fffffffffffffffffffffffffffffffffffffffffffffffffffffffffffffffff820361406b5761406a613f8e565b5b600182019050919050565b7f4f6e6c792074686520757365722063616e2063616c6c20746869732066756e6360008201527f74696f6e00000000000000000000000000000000000000000000000000000000602082015250565b60006140d2602483612f10565b91506140dd82614076565b604082019050919050565b60006020820190508181036000830152614101816140c5565b9050919050565b600081905092915050565b600061411e82612f05565b6141288185614108565b9350614138818560208601612f21565b80840191505092915050565b60006141508284614113565b915081905092915050565b7f5072696365206e6f742077697468696e2074686520737065636966696564207260008201527f616e6765206f72205468652050726f6475637420646f6573206e6f742045786960208201527f7374000000000000000000000000000000000000000000000000000000000000604082015250565b60006141dd604283612f10565b91506141e88261415b565b606082019050919050565b6000602082019050818103600083015261420c816141d0565b9050919050565b7f496e76616c696420616d6f756e7420746f206275790000000000000000000000600082015250565b6000614249601583612f10565b915061425482614213565b602082019050919050565b600060208201905081810360008301526142788161423c565b9050919050565b7f496e76616c696420726563697069656e74206164647265737300000000000000600082015250565b60006142b5601983612f10565b91506142c08261427f565b602082019050919050565b600060208201905081810360008301526142e4816142a8565b9050919050565b60006142f682612ea2565b915061430183612ea2565b925082820390508181111561431957614318613f8e565b5b92915050565b7f496e73756666696369656e742066756e64730000000000000000000000000000600082015250565b6000614355601283612f10565b91506143608261431f565b602082019050919050565b6000602082019050818103600083015261438481614348565b9050919050565b600060408201905081810360008301526143a58185612f5c565b905081810360208301526143b98184612f5c565b9050939250505056fea2646970667358221220b64aef36a764f1b46048b7e03ed58d9e18e03f9229d3579f3dabe7a88463c72064736f6c63430008130033",
  "linkReferences": {},
  "deployedLinkReferences": {}
}