{
  "_format": "hh-sol-artifact-1",
  "contractName": "LimaKijanja",
  "sourceName": "contracts/LimaKijanja.sol",
  "abi": [
    {
      "inputs": [],
      "stateMutability": "nonpayable",
      "type": "constructor"
    },
    {
      "anonymous": false,
      "inputs": [
        {
          "indexed": true,
          "internalType": "address",
          "name": "user",
          "type": "address"
        },
        {
          "indexed": false,
          "internalType": "string",
          "name": "action",
          "type": "string"
        },
        {
          "indexed": false,
          "internalType": "string",
          "name": "details",
          "type": "string"
        }
      ],
      "name": "TransactionEvent",
      "type": "event"
    },
    {
      "inputs": [
        {
          "internalType": "address",
          "name": "_userAddress",
          "type": "address"
        }
      ],
      "name": "Login",
      "outputs": [
        {
          "internalType": "string",
          "name": "",
          "type": "string"
        }
      ],
      "stateMutability": "view",
      "type": "function"
    },
    {
      "inputs": [
        {
          "internalType": "address",
          "name": "",
          "type": "address"
        }
      ],
      "name": "Productsmapping",
      "outputs": [
        {
          "internalType": "string",
          "name": "productName",
          "type": "string"
        },
        {
          "internalType": "string",
          "name": "productDescription",
          "type": "string"
        },
        {
          "internalType": "uint256",
          "name": "kilograms",
          "type": "uint256"
        },
        {
          "internalType": "uint256",
          "name": "price",
          "type": "uint256"
        },
        {
          "internalType": "address",
          "name": "owner",
          "type": "address"
        },
        {
          "internalType": "string",
          "name": "tag",
          "type": "string"
        }
      ],
      "stateMutability": "view",
      "type": "function"
    },
    {
      "inputs": [
        {
          "internalType": "address payable",
          "name": "_owner",
          "type": "address"
        },
        {
          "internalType": "uint256",
          "name": "_kilograms",
          "type": "uint256"
        }
      ],
      "name": "buyProduct",
      "outputs": [],
      "stateMutability": "payable",
      "type": "function"
    },
    {
      "inputs": [],
      "name": "getAllUsers",
      "outputs": [
        {
          "components": [
            {
              "internalType": "string",
              "name": "name",
              "type": "string"
            },
            {
              "internalType": "string",
              "name": "email",
              "type": "string"
            },
            {
              "internalType": "string",
              "name": "phoneNumber",
              "type": "string"
            },
            {
              "internalType": "string",
              "name": "location",
              "type": "string"
            },
            {
              "internalType": "address",
              "name": "walletAddress",
              "type": "address"
            }
          ],
          "internalType": "struct LimaKijanja.User[]",
          "name": "",
          "type": "tuple[]"
        }
      ],
      "stateMutability": "view",
      "type": "function"
    },
    {
      "inputs": [
        {
          "internalType": "string",
          "name": "_product",
          "type": "string"
        }
      ],
      "name": "getPricePerProduct",
      "outputs": [
        {
          "components": [
            {
              "internalType": "string",
              "name": "productName",
              "type": "string"
            },
            {
              "internalType": "uint256",
              "name": "min_Price",
              "type": "uint256"
            },
            {
              "internalType": "uint256",
              "name": "max_Price",
              "type": "uint256"
            }
          ],
          "internalType": "struct LimaKijanja.Price",
          "name": "",
          "type": "tuple"
        }
      ],
      "stateMutability": "view",
      "type": "function"
    },
    {
      "inputs": [],
      "name": "getTransactionRecords",
      "outputs": [
        {
          "components": [
            {
              "internalType": "string",
              "name": "action",
              "type": "string"
            },
            {
              "internalType": "string",
              "name": "details",
              "type": "string"
            },
            {
              "internalType": "uint256",
              "name": "timestamp",
              "type": "uint256"
            }
          ],
          "internalType": "struct LimaKijanja.TransactionRecord[]",
          "name": "",
          "type": "tuple[]"
        }
      ],
      "stateMutability": "view",
      "type": "function"
    },
    {
      "inputs": [],
      "name": "getTransactionsForUser",
      "outputs": [
        {
          "components": [
            {
              "internalType": "string",
              "name": "action",
              "type": "string"
            },
            {
              "internalType": "string",
              "name": "details",
              "type": "string"
            },
            {
              "internalType": "uint256",
              "name": "timestamp",
              "type": "uint256"
            }
          ],
          "internalType": "struct LimaKijanja.TransactionRecord[]",
          "name": "",
          "type": "tuple[]"
        }
      ],
      "stateMutability": "view",
      "type": "function"
    },
    {
      "inputs": [
        {
          "internalType": "address",
          "name": "_userAddress",
          "type": "address"
        }
      ],
      "name": "getUserInfo",
      "outputs": [
        {
          "components": [
            {
              "internalType": "string",
              "name": "name",
              "type": "string"
            },
            {
              "internalType": "string",
              "name": "email",
              "type": "string"
            },
            {
              "internalType": "string",
              "name": "phoneNumber",
              "type": "string"
            },
            {
              "internalType": "string",
              "name": "location",
              "type": "string"
            },
            {
              "internalType": "address",
              "name": "walletAddress",
              "type": "address"
            }
          ],
          "internalType": "struct LimaKijanja.User",
          "name": "",
          "type": "tuple"
        }
      ],
      "stateMutability": "view",
      "type": "function"
    },
    {
      "inputs": [],
      "name": "i_owner",
      "outputs": [
        {
          "internalType": "address",
          "name": "",
          "type": "address"
        }
      ],
      "stateMutability": "view",
      "type": "function"
    },
    {
      "inputs": [],
      "name": "logout",
      "outputs": [],
      "stateMutability": "nonpayable",
      "type": "function"
    },
    {
      "inputs": [
        {
          "internalType": "string",
          "name": "_productName",
          "type": "string"
        },
        {
          "internalType": "string",
          "name": "_productDescription",
          "type": "string"
        },
        {
          "internalType": "uint256",
          "name": "_kilograms",
          "type": "uint256"
        },
        {
          "internalType": "uint256",
          "name": "_price",
          "type": "uint256"
        },
        {
          "internalType": "string",
          "name": "_tag",
          "type": "string"
        }
      ],
      "name": "postProduct",
      "outputs": [],
      "stateMutability": "nonpayable",
      "type": "function"
    },
    {
      "inputs": [
        {
          "internalType": "string",
          "name": "",
          "type": "string"
        }
      ],
      "name": "productPricemapping",
      "outputs": [
        {
          "internalType": "string",
          "name": "productName",
          "type": "string"
        },
        {
          "internalType": "uint256",
          "name": "min_Price",
          "type": "uint256"
        },
        {
          "internalType": "uint256",
          "name": "max_Price",
          "type": "uint256"
        }
      ],
      "stateMutability": "view",
      "type": "function"
    },
    {
      "inputs": [
        {
          "internalType": "uint256",
          "name": "",
          "type": "uint256"
        }
      ],
      "name": "productPricesArray",
      "outputs": [
        {
          "internalType": "string",
          "name": "productName",
          "type": "string"
        },
        {
          "internalType": "uint256",
          "name": "min_Price",
          "type": "uint256"
        },
        {
          "internalType": "uint256",
          "name": "max_Price",
          "type": "uint256"
        }
      ],
      "stateMutability": "view",
      "type": "function"
    },
    {
      "inputs": [
        {
          "internalType": "uint256",
          "name": "",
          "type": "uint256"
        }
      ],
      "name": "productrArray",
      "outputs": [
        {
          "internalType": "string",
          "name": "productName",
          "type": "string"
        },
        {
          "internalType": "string",
          "name": "productDescription",
          "type": "string"
        },
        {
          "internalType": "uint256",
          "name": "kilograms",
          "type": "uint256"
        },
        {
          "internalType": "uint256",
          "name": "price",
          "type": "uint256"
        },
        {
          "internalType": "address",
          "name": "owner",
          "type": "address"
        },
        {
          "internalType": "string",
          "name": "tag",
          "type": "string"
        }
      ],
      "stateMutability": "view",
      "type": "function"
    },
    {
      "inputs": [
        {
          "internalType": "string",
          "name": "_name",
          "type": "string"
        },
        {
          "internalType": "string",
          "name": "_email",
          "type": "string"
        },
        {
          "internalType": "string",
          "name": "_phoneNumber",
          "type": "string"
        },
        {
          "internalType": "string",
          "name": "_location",
          "type": "string"
        },
        {
          "internalType": "address",
          "name": "_walletAddress",
          "type": "address"
        }
      ],
      "name": "register",
      "outputs": [],
      "stateMutability": "nonpayable",
      "type": "function"
    },
    {
      "inputs": [
        {
          "internalType": "address",
          "name": "_owner",
          "type": "address"
        },
        {
          "internalType": "uint256",
          "name": "_kilograms",
          "type": "uint256"
        }
      ],
      "name": "returnTotalPrice",
      "outputs": [
        {
          "internalType": "uint256",
          "name": "",
          "type": "uint256"
        }
      ],
      "stateMutability": "view",
      "type": "function"
    },
    {
      "inputs": [
        {
          "internalType": "uint256",
          "name": "_minPrice",
          "type": "uint256"
        },
        {
          "internalType": "uint256",
          "name": "_maxPrice",
          "type": "uint256"
        },
        {
          "internalType": "string",
          "name": "_productName",
          "type": "string"
        }
      ],
      "name": "setPrice",
      "outputs": [],
      "stateMutability": "nonpayable",
      "type": "function"
    },
    {
      "inputs": [
        {
          "internalType": "uint256",
          "name": "",
          "type": "uint256"
        }
      ],
      "name": "transactionRecords",
      "outputs": [
        {
          "internalType": "string",
          "name": "action",
          "type": "string"
        },
        {
          "internalType": "string",
          "name": "details",
          "type": "string"
        },
        {
          "internalType": "uint256",
          "name": "timestamp",
          "type": "uint256"
        }
      ],
      "stateMutability": "view",
      "type": "function"
    },
    {
      "inputs": [
        {
          "internalType": "uint256",
          "name": "",
          "type": "uint256"
        }
      ],
      "name": "userArray",
      "outputs": [
        {
          "internalType": "string",
          "name": "name",
          "type": "string"
        },
        {
          "internalType": "string",
          "name": "email",
          "type": "string"
        },
        {
          "internalType": "string",
          "name": "phoneNumber",
          "type": "string"
        },
        {
          "internalType": "string",
          "name": "location",
          "type": "string"
        },
        {
          "internalType": "address",
          "name": "walletAddress",
          "type": "address"
        }
      ],
      "stateMutability": "view",
      "type": "function"
    },
    {
      "inputs": [
        {
          "internalType": "address",
          "name": "",
          "type": "address"
        },
        {
          "internalType": "uint256",
          "name": "",
          "type": "uint256"
        }
      ],
      "name": "userTransactionsmapping",
      "outputs": [
        {
          "internalType": "string",
          "name": "action",
          "type": "string"
        },
        {
          "internalType": "string",
          "name": "details",
          "type": "string"
        },
        {
          "internalType": "uint256",
          "name": "timestamp",
          "type": "uint256"
        }
      ],
      "stateMutability": "view",
      "type": "function"
    },
    {
      "inputs": [],
      "name": "viewProducts",
      "outputs": [
        {
          "components": [
            {
              "internalType": "string",
              "name": "productName",
              "type": "string"
            },
            {
              "internalType": "string",
              "name": "productDescription",
              "type": "string"
            },
            {
              "internalType": "uint256",
              "name": "kilograms",
              "type": "uint256"
            },
            {
              "internalType": "uint256",
              "name": "price",
              "type": "uint256"
            },
            {
              "internalType": "address",
              "name": "owner",
              "type": "address"
            },
            {
              "internalType": "string",
              "name": "tag",
              "type": "string"
            }
          ],
          "internalType": "struct LimaKijanja.Product[]",
          "name": "",
          "type": "tuple[]"
        }
      ],
      "stateMutability": "view",
      "type": "function"
    }
  ],
  "bytecode": "0x60806040523480156200001157600080fd5b50336000806101000a81548173ffffffffffffffffffffffffffffffffffffffff021916908373ffffffffffffffffffffffffffffffffffffffff1602179055506040518060400160405280600581526020017f61646d696e000000000000000000000000000000000000000000000000000000815250600860008060009054906101000a900473ffffffffffffffffffffffffffffffffffffffff1673ffffffffffffffffffffffffffffffffffffffff1673ffffffffffffffffffffffffffffffffffffffff1681526020019081526020016000206001019081620000f991906200037a565b5062000461565b600081519050919050565b7f4e487b7100000000000000000000000000000000000000000000000000000000600052604160045260246000fd5b7f4e487b7100000000000000000000000000000000000000000000000000000000600052602260045260246000fd5b600060028204905060018216806200018257607f821691505b6020821081036200019857620001976200013a565b5b50919050565b60008190508160005260206000209050919050565b60006020601f8301049050919050565b600082821b905092915050565b600060088302620002027fffffffffffffffffffffffffffffffffffffffffffffffffffffffffffffffff82620001c3565b6200020e8683620001c3565b95508019841693508086168417925050509392505050565b6000819050919050565b6000819050919050565b60006200025b620002556200024f8462000226565b62000230565b62000226565b9050919050565b6000819050919050565b62000277836200023a565b6200028f620002868262000262565b848454620001d0565b825550505050565b600090565b620002a662000297565b620002b38184846200026c565b505050565b5b81811015620002db57620002cf6000826200029c565b600181019050620002b9565b5050565b601f8211156200032a57620002f4816200019e565b620002ff84620001b3565b810160208510156200030f578190505b620003276200031e85620001b3565b830182620002b8565b50505b505050565b600082821c905092915050565b60006200034f600019846008026200032f565b1980831691505092915050565b60006200036a83836200033c565b9150826002028217905092915050565b620003858262000100565b67ffffffffffffffff811115620003a157620003a06200010b565b5b620003ad825462000169565b620003ba828285620002df565b600060209050601f831160018114620003f25760008415620003dd578287015190505b620003e985826200035c565b86555062000459565b601f19841662000402866200019e565b60005b828110156200042c5784890151825560018201915060208501945060208101905062000405565b868310156200044c578489015162000448601f8916826200033c565b8355505b6001600288020188555050505b505050505050565b61433380620004716000396000f3fe60806040526004361061012a5760003560e01c8063a887d748116100ab578063dba6335f1161006f578063dba6335f14610457578063dc03397014610482578063e2842d79146104ad578063ec5e6ca4146104d8578063eecc1c9514610501578063f9f24da11461053e5761012a565b8063a887d74814610341578063ad2925b814610380578063bf37ca01146103bd578063c34af088146103fc578063cddb8e941461043b5761012a565b80636830824a116100f25780636830824a146102485780636ee03bac1461027357806386576007146102b25780639470b756146102db578063a852287d146103185761012a565b80630dd9193d1461012f5780631f3c99c31461017157806341209af1146101885780634ff30aff146101c95780636386c1c71461020b575b600080fd5b34801561013b57600080fd5b5061015660048036038101906101519190612e22565b610569565b60405161016896959493929190612f2f565b60405180910390f35b34801561017d57600080fd5b5061018661076d565b005b34801561019457600080fd5b506101af60048036038101906101aa9190612e22565b61076f565b6040516101c0959493929190612fa5565b60405180910390f35b3480156101d557600080fd5b506101f060048036038101906101eb9190613040565b6109f5565b60405161020296959493929190612f2f565b60405180910390f35b34801561021757600080fd5b50610232600480360381019061022d9190613040565b610be9565b60405161023f9190613151565b60405180910390f35b34801561025457600080fd5b5061025d610ee0565b60405161026a919061329b565b60405180910390f35b34801561027f57600080fd5b5061029a60048036038101906102959190612e22565b61106d565b6040516102a9939291906132bd565b60405180910390f35b3480156102be57600080fd5b506102d960048036038101906102d49190613437565b6111b7565b005b3480156102e757600080fd5b5061030260048036038101906102fd9190613522565b611502565b60405161030f9190613562565b60405180910390f35b34801561032457600080fd5b5061033f600480360381019061033a919061357d565b61155f565b005b34801561034d57600080fd5b506103686004803603810190610363919061364c565b6119ab565b60405161037793929190613695565b60405180910390f35b34801561038c57600080fd5b506103a760048036038101906103a2919061364c565b611a73565b6040516103b49190613723565b60405180910390f35b3480156103c957600080fd5b506103e460048036038101906103df9190612e22565b611b51565b6040516103f393929190613695565b60405180910390f35b34801561040857600080fd5b50610423600480360381019061041e9190613522565b611c13565b604051610432939291906132bd565b60405180910390f35b61045560048036038101906104509190613783565b611d6a565b005b34801561046357600080fd5b5061046c612229565b60405161047991906137c3565b60405180910390f35b34801561048e57600080fd5b5061049761224d565b6040516104a4919061329b565b60405180910390f35b3480156104b957600080fd5b506104c2612417565b6040516104cf919061392b565b60405180910390f35b3480156104e457600080fd5b506104ff60048036038101906104fa919061394d565b612714565b005b34801561050d57600080fd5b5061052860048036038101906105239190613040565b6128a5565b60405161053591906139bc565b60405180910390f35b34801561054a57600080fd5b50610553612979565b6040516105609190613b37565b60405180910390f35b6002818154811061057957600080fd5b906000526020600020906006020160009150905080600001805461059c90613b88565b80601f01602080910402602001604051908101604052809291908181526020018280546105c890613b88565b80156106155780601f106105ea57610100808354040283529160200191610615565b820191906000526020600020905b8154815290600101906020018083116105f857829003601f168201915b50505050509080600101805461062a90613b88565b80601f016020809104026020016040519081016040528092919081815260200182805461065690613b88565b80156106a35780601f10610678576101008083540402835291602001916106a3565b820191906000526020600020905b81548152906001019060200180831161068657829003601f168201915b5050505050908060020154908060030154908060040160009054906101000a900473ffffffffffffffffffffffffffffffffffffffff16908060050180546106ea90613b88565b80601f016020809104026020016040519081016040528092919081815260200182805461071690613b88565b80156107635780601f1061073857610100808354040283529160200191610763565b820191906000526020600020905b81548152906001019060200180831161074657829003601f168201915b5050505050905086565b565b6003818154811061077f57600080fd5b90600052602060002090600502016000915090508060000180546107a290613b88565b80601f01602080910402602001604051908101604052809291908181526020018280546107ce90613b88565b801561081b5780601f106107f05761010080835404028352916020019161081b565b820191906000526020600020905b8154815290600101906020018083116107fe57829003601f168201915b50505050509080600101805461083090613b88565b80601f016020809104026020016040519081016040528092919081815260200182805461085c90613b88565b80156108a95780601f1061087e576101008083540402835291602001916108a9565b820191906000526020600020905b81548152906001019060200180831161088c57829003601f168201915b5050505050908060020180546108be90613b88565b80601f01602080910402602001604051908101604052809291908181526020018280546108ea90613b88565b80156109375780601f1061090c57610100808354040283529160200191610937565b820191906000526020600020905b81548152906001019060200180831161091a57829003601f168201915b50505050509080600301805461094c90613b88565b80601f016020809104026020016040519081016040528092919081815260200182805461097890613b88565b80156109c55780601f1061099a576101008083540402835291602001916109c5565b820191906000526020600020905b8154815290600101906020018083116109a857829003601f168201915b5050505050908060040160009054906101000a900473ffffffffffffffffffffffffffffffffffffffff16905085565b6006602052806000526040600020600091509050806000018054610a1890613b88565b80601f0160208091040260200160405190810160405280929190818152602001828054610a4490613b88565b8015610a915780601f10610a6657610100808354040283529160200191610a91565b820191906000526020600020905b815481529060010190602001808311610a7457829003601f168201915b505050505090806001018054610aa690613b88565b80601f0160208091040260200160405190810160405280929190818152602001828054610ad290613b88565b8015610b1f5780601f10610af457610100808354040283529160200191610b1f565b820191906000526020600020905b815481529060010190602001808311610b0257829003601f168201915b5050505050908060020154908060030154908060040160009054906101000a900473ffffffffffffffffffffffffffffffffffffffff1690806005018054610b6690613b88565b80601f0160208091040260200160405190810160405280929190818152602001828054610b9290613b88565b8015610bdf5780601f10610bb457610100808354040283529160200191610bdf565b820191906000526020600020905b815481529060010190602001808311610bc257829003601f168201915b5050505050905086565b610bf1612d72565b600960008373ffffffffffffffffffffffffffffffffffffffff1673ffffffffffffffffffffffffffffffffffffffff1681526020019081526020016000206040518060a0016040529081600082018054610c4b90613b88565b80601f0160208091040260200160405190810160405280929190818152602001828054610c7790613b88565b8015610cc45780601f10610c9957610100808354040283529160200191610cc4565b820191906000526020600020905b815481529060010190602001808311610ca757829003601f168201915b50505050508152602001600182018054610cdd90613b88565b80601f0160208091040260200160405190810160405280929190818152602001828054610d0990613b88565b8015610d565780601f10610d2b57610100808354040283529160200191610d56565b820191906000526020600020905b815481529060010190602001808311610d3957829003601f168201915b50505050508152602001600282018054610d6f90613b88565b80601f0160208091040260200160405190810160405280929190818152602001828054610d9b90613b88565b8015610de85780601f10610dbd57610100808354040283529160200191610de8565b820191906000526020600020905b815481529060010190602001808311610dcb57829003601f168201915b50505050508152602001600382018054610e0190613b88565b80601f0160208091040260200160405190810160405280929190818152602001828054610e2d90613b88565b8015610e7a5780601f10610e4f57610100808354040283529160200191610e7a565b820191906000526020600020905b815481529060010190602001808311610e5d57829003601f168201915b505050505081526020016004820160009054906101000a900473ffffffffffffffffffffffffffffffffffffffff1673ffffffffffffffffffffffffffffffffffffffff1673ffffffffffffffffffffffffffffffffffffffff16815250509050919050565b60606004805480602002602001604051908101604052809291908181526020016000905b828210156110645783829060005260206000209060030201604051806060016040529081600082018054610f3790613b88565b80601f0160208091040260200160405190810160405280929190818152602001828054610f6390613b88565b8015610fb05780601f10610f8557610100808354040283529160200191610fb0565b820191906000526020600020905b815481529060010190602001808311610f9357829003601f168201915b50505050508152602001600182018054610fc990613b88565b80601f0160208091040260200160405190810160405280929190818152602001828054610ff590613b88565b80156110425780601f1061101757610100808354040283529160200191611042565b820191906000526020600020905b81548152906001019060200180831161102557829003601f168201915b5050505050815260200160028201548152505081526020019060010190610f04565b50505050905090565b6004818154811061107d57600080fd5b90600052602060002090600302016000915090508060000180546110a090613b88565b80601f01602080910402602001604051908101604052809291908181526020018280546110cc90613b88565b80156111195780601f106110ee57610100808354040283529160200191611119565b820191906000526020600020905b8154815290600101906020018083116110fc57829003601f168201915b50505050509080600101805461112e90613b88565b80601f016020809104026020016040519081016040528092919081815260200182805461115a90613b88565b80156111a75780601f1061117c576101008083540402835291602001916111a7565b820191906000526020600020905b81548152906001019060200180831161118a57829003601f168201915b5050505050908060020154905083565b60008054906101000a900473ffffffffffffffffffffffffffffffffffffffff1673ffffffffffffffffffffffffffffffffffffffff163373ffffffffffffffffffffffffffffffffffffffff1614611245576040517f08c379a000000000000000000000000000000000000000000000000000000000815260040161123c90613c2b565b60405180910390fd5b60006040518060a001604052808781526020018681526020018581526020018481526020018373ffffffffffffffffffffffffffffffffffffffff168152509050600381908060018154018082558091505060019003906000526020600020906005020160009091909190915060008201518160000190816112c79190613df7565b5060208201518160010190816112dd9190613df7565b5060408201518160020190816112f39190613df7565b5060608201518160030190816113099190613df7565b5060808201518160040160006101000a81548173ffffffffffffffffffffffffffffffffffffffff021916908373ffffffffffffffffffffffffffffffffffffffff160217905550505080600960008473ffffffffffffffffffffffffffffffffffffffff1673ffffffffffffffffffffffffffffffffffffffff16815260200190815260200160002060008201518160000190816113a89190613df7565b5060208201518160010190816113be9190613df7565b5060408201518160020190816113d49190613df7565b5060608201518160030190816113ea9190613df7565b5060808201518160040160006101000a81548173ffffffffffffffffffffffffffffffffffffffff021916908373ffffffffffffffffffffffffffffffffffffffff1602179055509050506040518060400160405280600481526020017f7573657200000000000000000000000000000000000000000000000000000000815250600860008473ffffffffffffffffffffffffffffffffffffffff1673ffffffffffffffffffffffffffffffffffffffff16815260200190815260200160002060010190816114b99190613df7565b506114fa336040518060400160405280600881526020017f416464205573657200000000000000000000000000000000000000000000000081525088612bf8565b505050505050565b600080600660008573ffffffffffffffffffffffffffffffffffffffff1673ffffffffffffffffffffffffffffffffffffffff16815260200190815260200160002060030154836115539190613ef8565b90508091505092915050565b6000805b600380549050811015611604573373ffffffffffffffffffffffffffffffffffffffff166003828154811061159b5761159a613f3a565b5b906000526020600020906005020160040160009054906101000a900473ffffffffffffffffffffffffffffffffffffffff1673ffffffffffffffffffffffffffffffffffffffff16036115f15760019150611604565b80806115fc90613f69565b915050611563565b5080611645576040517f08c379a000000000000000000000000000000000000000000000000000000000815260040161163c90614023565b60405180910390fd5b6000600587604051611657919061407f565b908152602001604051809103902060405180606001604052908160008201805461168090613b88565b80601f01602080910402602001604051908101604052809291908181526020018280546116ac90613b88565b80156116f95780601f106116ce576101008083540402835291602001916116f9565b820191906000526020600020905b8154815290600101906020018083116116dc57829003601f168201915b5050505050815260200160018201548152602001600282015481525050905080602001518410158015611730575080604001518411155b61176f576040517f08c379a00000000000000000000000000000000000000000000000000000000081526004016117669061412e565b60405180910390fd5b60006040518060c001604052808981526020018881526020018781526020018681526020013373ffffffffffffffffffffffffffffffffffffffff168152602001858152509050600281908060018154018082558091505060019003906000526020600020906006020160009091909190915060008201518160000190816117f79190613df7565b50602082015181600101908161180d9190613df7565b50604082015181600201556060820151816003015560808201518160040160006101000a81548173ffffffffffffffffffffffffffffffffffffffff021916908373ffffffffffffffffffffffffffffffffffffffff16021790555060a082015181600501908161187e9190613df7565b50505080600660003373ffffffffffffffffffffffffffffffffffffffff1673ffffffffffffffffffffffffffffffffffffffff16815260200190815260200160002060008201518160000190816118d69190613df7565b5060208201518160010190816118ec9190613df7565b50604082015181600201556060820151816003015560808201518160040160006101000a81548173ffffffffffffffffffffffffffffffffffffffff021916908373ffffffffffffffffffffffffffffffffffffffff16021790555060a082015181600501908161195d9190613df7565b509050506119a1336040518060400160405280600c81526020017f506f73742050726f6475637400000000000000000000000000000000000000008152508a612bf8565b5050505050505050565b6005818051602081018201805184825260208301602085012081835280955050505050506000915090508060000180546119e490613b88565b80601f0160208091040260200160405190810160405280929190818152602001828054611a1090613b88565b8015611a5d5780601f10611a3257610100808354040283529160200191611a5d565b820191906000526020600020905b815481529060010190602001808311611a4057829003601f168201915b5050505050908060010154908060020154905083565b611a7b612db7565b600582604051611a8b919061407f565b9081526020016040518091039020604051806060016040529081600082018054611ab490613b88565b80601f0160208091040260200160405190810160405280929190818152602001828054611ae090613b88565b8015611b2d5780601f10611b0257610100808354040283529160200191611b2d565b820191906000526020600020905b815481529060010190602001808311611b1057829003601f168201915b50505050508152602001600182015481526020016002820154815250509050919050565b60018181548110611b6157600080fd5b9060005260206000209060030201600091509050806000018054611b8490613b88565b80601f0160208091040260200160405190810160405280929190818152602001828054611bb090613b88565b8015611bfd5780601f10611bd257610100808354040283529160200191611bfd565b820191906000526020600020905b815481529060010190602001808311611be057829003601f168201915b5050505050908060010154908060020154905083565b60076020528160005260406000208181548110611c2f57600080fd5b906000526020600020906003020160009150915050806000018054611c5390613b88565b80601f0160208091040260200160405190810160405280929190818152602001828054611c7f90613b88565b8015611ccc5780601f10611ca157610100808354040283529160200191611ccc565b820191906000526020600020905b815481529060010190602001808311611caf57829003601f168201915b505050505090806001018054611ce190613b88565b80601f0160208091040260200160405190810160405280929190818152602001828054611d0d90613b88565b8015611d5a5780601f10611d2f57610100808354040283529160200191611d5a565b820191906000526020600020905b815481529060010190602001808311611d3d57829003601f168201915b5050505050908060020154905083565b600660008373ffffffffffffffffffffffffffffffffffffffff1673ffffffffffffffffffffffffffffffffffffffff16815260200190815260200160002060020154811115611def576040517f08c379a0000000000000000000000000000000000000000000000000000000008152600401611de69061419a565b60405180910390fd5b600073ffffffffffffffffffffffffffffffffffffffff168273ffffffffffffffffffffffffffffffffffffffff1603611e5e576040517f08c379a0000000000000000000000000000000000000000000000000000000008152600401611e5590614206565b60405180910390fd5b600660008373ffffffffffffffffffffffffffffffffffffffff1673ffffffffffffffffffffffffffffffffffffffff1681526020019081526020016000206003015481611eac9190613ef8565b3373ffffffffffffffffffffffffffffffffffffffff16311015611f05576040517f08c379a0000000000000000000000000000000000000000000000000000000008152600401611efc90614272565b60405180910390fd5b80600660008473ffffffffffffffffffffffffffffffffffffffff1673ffffffffffffffffffffffffffffffffffffffff1681526020019081526020016000206002016000828254611f579190614292565b9250508190555060005b60028054905081101561206a578273ffffffffffffffffffffffffffffffffffffffff1660028281548110611f9957611f98613f3a565b5b906000526020600020906006020160040160009054906101000a900473ffffffffffffffffffffffffffffffffffffffff1673ffffffffffffffffffffffffffffffffffffffff160361205757600660008473ffffffffffffffffffffffffffffffffffffffff1673ffffffffffffffffffffffffffffffffffffffff168152602001908152602001600020600201546002828154811061203d5761203c613f3a565b5b90600052602060002090600602016002018190555061206a565b808061206290613f69565b915050611f61565b506000600660008473ffffffffffffffffffffffffffffffffffffffff1673ffffffffffffffffffffffffffffffffffffffff16815260200190815260200160002060030154826120bb9190613ef8565b9050670de0b6b3a7640000816120d19190613ef8565b90508273ffffffffffffffffffffffffffffffffffffffff166108fc829081150290604051600060405180830381858888f19350505050158015612119573d6000803e3d6000fd5b50612224336040518060400160405280600b81526020017f4275792050726f64756374000000000000000000000000000000000000000000815250600660008773ffffffffffffffffffffffffffffffffffffffff1673ffffffffffffffffffffffffffffffffffffffff16815260200190815260200160002060000180546121a190613b88565b80601f01602080910402602001604051908101604052809291908181526020018280546121cd90613b88565b801561221a5780601f106121ef5761010080835404028352916020019161221a565b820191906000526020600020905b8154815290600101906020018083116121fd57829003601f168201915b5050505050612bf8565b505050565b60008054906101000a900473ffffffffffffffffffffffffffffffffffffffff1681565b6060600760003373ffffffffffffffffffffffffffffffffffffffff1673ffffffffffffffffffffffffffffffffffffffff168152602001908152602001600020805480602002602001604051908101604052809291908181526020016000905b8282101561240e57838290600052602060002090600302016040518060600160405290816000820180546122e190613b88565b80601f016020809104026020016040519081016040528092919081815260200182805461230d90613b88565b801561235a5780601f1061232f5761010080835404028352916020019161235a565b820191906000526020600020905b81548152906001019060200180831161233d57829003601f168201915b5050505050815260200160018201805461237390613b88565b80601f016020809104026020016040519081016040528092919081815260200182805461239f90613b88565b80156123ec5780601f106123c1576101008083540402835291602001916123ec565b820191906000526020600020905b8154815290600101906020018083116123cf57829003601f168201915b50505050508152602001600282015481525050815260200190600101906122ae565b50505050905090565b60606003805480602002602001604051908101604052809291908181526020016000905b8282101561270b57838290600052602060002090600502016040518060a001604052908160008201805461246e90613b88565b80601f016020809104026020016040519081016040528092919081815260200182805461249a90613b88565b80156124e75780601f106124bc576101008083540402835291602001916124e7565b820191906000526020600020905b8154815290600101906020018083116124ca57829003601f168201915b5050505050815260200160018201805461250090613b88565b80601f016020809104026020016040519081016040528092919081815260200182805461252c90613b88565b80156125795780601f1061254e57610100808354040283529160200191612579565b820191906000526020600020905b81548152906001019060200180831161255c57829003601f168201915b5050505050815260200160028201805461259290613b88565b80601f01602080910402602001604051908101604052809291908181526020018280546125be90613b88565b801561260b5780601f106125e05761010080835404028352916020019161260b565b820191906000526020600020905b8154815290600101906020018083116125ee57829003601f168201915b5050505050815260200160038201805461262490613b88565b80601f016020809104026020016040519081016040528092919081815260200182805461265090613b88565b801561269d5780601f106126725761010080835404028352916020019161269d565b820191906000526020600020905b81548152906001019060200180831161268057829003601f168201915b505050505081526020016004820160009054906101000a900473ffffffffffffffffffffffffffffffffffffffff1673ffffffffffffffffffffffffffffffffffffffff1673ffffffffffffffffffffffffffffffffffffffff16815250508152602001906001019061243b565b50505050905090565b60008054906101000a900473ffffffffffffffffffffffffffffffffffffffff1673ffffffffffffffffffffffffffffffffffffffff163373ffffffffffffffffffffffffffffffffffffffff16146127a2576040517f08c379a000000000000000000000000000000000000000000000000000000000815260040161279990613c2b565b60405180910390fd5b60006005826040516127b4919061407f565b90815260200160405180910390209050600081600101541480156127dc575060008160020154145b1561284c5760405180606001604052808381526020018581526020018481525060058360405161280c919061407f565b9081526020016040518091039020600082015181600001908161282f9190613df7565b50602082015181600101556040820151816002015590505061285f565b8381600101819055508281600201819055505b61289f336040518060400160405280600981526020017f536574205072696365000000000000000000000000000000000000000000000081525084612bf8565b50505050565b6060600860008373ffffffffffffffffffffffffffffffffffffffff1673ffffffffffffffffffffffffffffffffffffffff16815260200190815260200160002060010180546128f490613b88565b80601f016020809104026020016040519081016040528092919081815260200182805461292090613b88565b801561296d5780601f106129425761010080835404028352916020019161296d565b820191906000526020600020905b81548152906001019060200180831161295057829003601f168201915b50505050509050919050565b60606002805480602002602001604051908101604052809291908181526020016000905b82821015612bef57838290600052602060002090600602016040518060c00160405290816000820180546129d090613b88565b80601f01602080910402602001604051908101604052809291908181526020018280546129fc90613b88565b8015612a495780601f10612a1e57610100808354040283529160200191612a49565b820191906000526020600020905b815481529060010190602001808311612a2c57829003601f168201915b50505050508152602001600182018054612a6290613b88565b80601f0160208091040260200160405190810160405280929190818152602001828054612a8e90613b88565b8015612adb5780601f10612ab057610100808354040283529160200191612adb565b820191906000526020600020905b815481529060010190602001808311612abe57829003601f168201915b5050505050815260200160028201548152602001600382015481526020016004820160009054906101000a900473ffffffffffffffffffffffffffffffffffffffff1673ffffffffffffffffffffffffffffffffffffffff1673ffffffffffffffffffffffffffffffffffffffff168152602001600582018054612b5e90613b88565b80601f0160208091040260200160405190810160405280929190818152602001828054612b8a90613b88565b8015612bd75780601f10612bac57610100808354040283529160200191612bd7565b820191906000526020600020905b815481529060010190602001808311612bba57829003601f168201915b5050505050815250508152602001906001019061299d565b50505050905090565b6000604051806060016040528084815260200183815260200142815250905060048190806001815401808255809150506001900390600052602060002090600302016000909190919091506000820151816000019081612c589190613df7565b506020820151816001019081612c6e9190613df7565b50604082015181600201555050600760008573ffffffffffffffffffffffffffffffffffffffff1673ffffffffffffffffffffffffffffffffffffffff1681526020019081526020016000208190806001815401808255809150506001900390600052602060002090600302016000909190919091506000820151816000019081612cf99190613df7565b506020820151816001019081612d0f9190613df7565b506040820151816002015550508373ffffffffffffffffffffffffffffffffffffffff167fb4797556ab69160a38307605f1c2b3cabd741f55a562c3e47255d5eee2bf228b8484604051612d649291906142c6565b60405180910390a250505050565b6040518060a0016040528060608152602001606081526020016060815260200160608152602001600073ffffffffffffffffffffffffffffffffffffffff1681525090565b60405180606001604052806060815260200160008152602001600081525090565b6000604051905090565b600080fd5b600080fd5b6000819050919050565b612dff81612dec565b8114612e0a57600080fd5b50565b600081359050612e1c81612df6565b92915050565b600060208284031215612e3857612e37612de2565b5b6000612e4684828501612e0d565b91505092915050565b600081519050919050565b600082825260208201905092915050565b60005b83811015612e89578082015181840152602081019050612e6e565b60008484015250505050565b6000601f19601f8301169050919050565b6000612eb182612e4f565b612ebb8185612e5a565b9350612ecb818560208601612e6b565b612ed481612e95565b840191505092915050565b612ee881612dec565b82525050565b600073ffffffffffffffffffffffffffffffffffffffff82169050919050565b6000612f1982612eee565b9050919050565b612f2981612f0e565b82525050565b600060c0820190508181036000830152612f498189612ea6565b90508181036020830152612f5d8188612ea6565b9050612f6c6040830187612edf565b612f796060830186612edf565b612f866080830185612f20565b81810360a0830152612f988184612ea6565b9050979650505050505050565b600060a0820190508181036000830152612fbf8188612ea6565b90508181036020830152612fd38187612ea6565b90508181036040830152612fe78186612ea6565b90508181036060830152612ffb8185612ea6565b905061300a6080830184612f20565b9695505050505050565b61301d81612f0e565b811461302857600080fd5b50565b60008135905061303a81613014565b92915050565b60006020828403121561305657613055612de2565b5b60006130648482850161302b565b91505092915050565b600082825260208201905092915050565b600061308982612e4f565b613093818561306d565b93506130a3818560208601612e6b565b6130ac81612e95565b840191505092915050565b6130c081612f0e565b82525050565b600060a08301600083015184820360008601526130e3828261307e565b915050602083015184820360208601526130fd828261307e565b91505060408301518482036040860152613117828261307e565b91505060608301518482036060860152613131828261307e565b915050608083015161314660808601826130b7565b508091505092915050565b6000602082019050818103600083015261316b81846130c6565b905092915050565b600081519050919050565b600082825260208201905092915050565b6000819050602082019050919050565b6131a881612dec565b82525050565b600060608301600083015184820360008601526131cb828261307e565b915050602083015184820360208601526131e5828261307e565b91505060408301516131fa604086018261319f565b508091505092915050565b600061321183836131ae565b905092915050565b6000602082019050919050565b600061323182613173565b61323b818561317e565b93508360208202850161324d8561318f565b8060005b85811015613289578484038952815161326a8582613205565b945061327583613219565b925060208a01995050600181019050613251565b50829750879550505050505092915050565b600060208201905081810360008301526132b58184613226565b905092915050565b600060608201905081810360008301526132d78186612ea6565b905081810360208301526132eb8185612ea6565b90506132fa6040830184612edf565b949350505050565b600080fd5b600080fd5b7f4e487b7100000000000000000000000000000000000000000000000000000000600052604160045260246000fd5b61334482612e95565b810181811067ffffffffffffffff821117156133635761336261330c565b5b80604052505050565b6000613376612dd8565b9050613382828261333b565b919050565b600067ffffffffffffffff8211156133a2576133a161330c565b5b6133ab82612e95565b9050602081019050919050565b82818337600083830152505050565b60006133da6133d584613387565b61336c565b9050828152602081018484840111156133f6576133f5613307565b5b6134018482856133b8565b509392505050565b600082601f83011261341e5761341d613302565b5b813561342e8482602086016133c7565b91505092915050565b600080600080600060a0868803121561345357613452612de2565b5b600086013567ffffffffffffffff81111561347157613470612de7565b5b61347d88828901613409565b955050602086013567ffffffffffffffff81111561349e5761349d612de7565b5b6134aa88828901613409565b945050604086013567ffffffffffffffff8111156134cb576134ca612de7565b5b6134d788828901613409565b935050606086013567ffffffffffffffff8111156134f8576134f7612de7565b5b61350488828901613409565b92505060806135158882890161302b565b9150509295509295909350565b6000806040838503121561353957613538612de2565b5b60006135478582860161302b565b925050602061355885828601612e0d565b9150509250929050565b60006020820190506135776000830184612edf565b92915050565b600080600080600060a0868803121561359957613598612de2565b5b600086013567ffffffffffffffff8111156135b7576135b6612de7565b5b6135c388828901613409565b955050602086013567ffffffffffffffff8111156135e4576135e3612de7565b5b6135f088828901613409565b945050604061360188828901612e0d565b935050606061361288828901612e0d565b925050608086013567ffffffffffffffff81111561363357613632612de7565b5b61363f88828901613409565b9150509295509295909350565b60006020828403121561366257613661612de2565b5b600082013567ffffffffffffffff8111156136805761367f612de7565b5b61368c84828501613409565b91505092915050565b600060608201905081810360008301526136af8186612ea6565b90506136be6020830185612edf565b6136cb6040830184612edf565b949350505050565b600060608301600083015184820360008601526136f0828261307e565b9150506020830151613705602086018261319f565b506040830151613718604086018261319f565b508091505092915050565b6000602082019050818103600083015261373d81846136d3565b905092915050565b600061375082612eee565b9050919050565b61376081613745565b811461376b57600080fd5b50565b60008135905061377d81613757565b92915050565b6000806040838503121561379a57613799612de2565b5b60006137a88582860161376e565b92505060206137b985828601612e0d565b9150509250929050565b60006020820190506137d86000830184612f20565b92915050565b600081519050919050565b600082825260208201905092915050565b6000819050602082019050919050565b600060a0830160008301518482036000860152613827828261307e565b91505060208301518482036020860152613841828261307e565b9150506040830151848203604086015261385b828261307e565b91505060608301518482036060860152613875828261307e565b915050608083015161388a60808601826130b7565b508091505092915050565b60006138a1838361380a565b905092915050565b6000602082019050919050565b60006138c1826137de565b6138cb81856137e9565b9350836020820285016138dd856137fa565b8060005b8581101561391957848403895281516138fa8582613895565b9450613905836138a9565b925060208a019950506001810190506138e1565b50829750879550505050505092915050565b6000602082019050818103600083015261394581846138b6565b905092915050565b60008060006060848603121561396657613965612de2565b5b600061397486828701612e0d565b935050602061398586828701612e0d565b925050604084013567ffffffffffffffff8111156139a6576139a5612de7565b5b6139b286828701613409565b9150509250925092565b600060208201905081810360008301526139d68184612ea6565b905092915050565b600081519050919050565b600082825260208201905092915050565b6000819050602082019050919050565b600060c0830160008301518482036000860152613a27828261307e565b91505060208301518482036020860152613a41828261307e565b9150506040830151613a56604086018261319f565b506060830151613a69606086018261319f565b506080830151613a7c60808601826130b7565b5060a083015184820360a0860152613a94828261307e565b9150508091505092915050565b6000613aad8383613a0a565b905092915050565b6000602082019050919050565b6000613acd826139de565b613ad781856139e9565b935083602082028501613ae9856139fa565b8060005b85811015613b255784840389528151613b068582613aa1565b9450613b1183613ab5565b925060208a01995050600181019050613aed565b50829750879550505050505092915050565b60006020820190508181036000830152613b518184613ac2565b905092915050565b7f4e487b7100000000000000000000000000000000000000000000000000000000600052602260045260246000fd5b60006002820490506001821680613ba057607f821691505b602082108103613bb357613bb2613b59565b5b50919050565b7f4f6e6c7920746865206f776e65722063616e2063616c6c20746869732066756e60008201527f6374696f6e000000000000000000000000000000000000000000000000000000602082015250565b6000613c15602583612e5a565b9150613c2082613bb9565b604082019050919050565b60006020820190508181036000830152613c4481613c08565b9050919050565b60008190508160005260206000209050919050565b60006020601f8301049050919050565b600082821b905092915050565b600060088302613cad7fffffffffffffffffffffffffffffffffffffffffffffffffffffffffffffffff82613c70565b613cb78683613c70565b95508019841693508086168417925050509392505050565b6000819050919050565b6000613cf4613cef613cea84612dec565b613ccf565b612dec565b9050919050565b6000819050919050565b613d0e83613cd9565b613d22613d1a82613cfb565b848454613c7d565b825550505050565b600090565b613d37613d2a565b613d42818484613d05565b505050565b5b81811015613d6657613d5b600082613d2f565b600181019050613d48565b5050565b601f821115613dab57613d7c81613c4b565b613d8584613c60565b81016020851015613d94578190505b613da8613da085613c60565b830182613d47565b50505b505050565b600082821c905092915050565b6000613dce60001984600802613db0565b1980831691505092915050565b6000613de78383613dbd565b9150826002028217905092915050565b613e0082612e4f565b67ffffffffffffffff811115613e1957613e1861330c565b5b613e238254613b88565b613e2e828285613d6a565b600060209050601f831160018114613e615760008415613e4f578287015190505b613e598582613ddb565b865550613ec1565b601f198416613e6f86613c4b565b60005b82811015613e9757848901518255600182019150602085019450602081019050613e72565b86831015613eb45784890151613eb0601f891682613dbd565b8355505b6001600288020188555050505b505050505050565b7f4e487b7100000000000000000000000000000000000000000000000000000000600052601160045260246000fd5b6000613f0382612dec565b9150613f0e83612dec565b9250828202613f1c81612dec565b91508282048414831517613f3357613f32613ec9565b5b5092915050565b7f4e487b7100000000000000000000000000000000000000000000000000000000600052603260045260246000fd5b6000613f7482612dec565b91507fffffffffffffffffffffffffffffffffffffffffffffffffffffffffffffffff8203613fa657613fa5613ec9565b5b600182019050919050565b7f4f6e6c792074686520757365722063616e2063616c6c20746869732066756e6360008201527f74696f6e00000000000000000000000000000000000000000000000000000000602082015250565b600061400d602483612e5a565b915061401882613fb1565b604082019050919050565b6000602082019050818103600083015261403c81614000565b9050919050565b600081905092915050565b600061405982612e4f565b6140638185614043565b9350614073818560208601612e6b565b80840191505092915050565b600061408b828461404e565b915081905092915050565b7f5072696365206e6f742077697468696e2074686520737065636966696564207260008201527f616e6765206f72205468652050726f6475637420646f6573206e6f742045786960208201527f7374000000000000000000000000000000000000000000000000000000000000604082015250565b6000614118604283612e5a565b915061412382614096565b606082019050919050565b600060208201905081810360008301526141478161410b565b9050919050565b7f496e76616c696420616d6f756e7420746f206275790000000000000000000000600082015250565b6000614184601583612e5a565b915061418f8261414e565b602082019050919050565b600060208201905081810360008301526141b381614177565b9050919050565b7f496e76616c696420726563697069656e74206164647265737300000000000000600082015250565b60006141f0601983612e5a565b91506141fb826141ba565b602082019050919050565b6000602082019050818103600083015261421f816141e3565b9050919050565b7f496e73756666696369656e742066756e64730000000000000000000000000000600082015250565b600061425c601283612e5a565b915061426782614226565b602082019050919050565b6000602082019050818103600083015261428b8161424f565b9050919050565b600061429d82612dec565b91506142a883612dec565b92508282039050818111156142c0576142bf613ec9565b5b92915050565b600060408201905081810360008301526142e08185612ea6565b905081810360208301526142f48184612ea6565b9050939250505056fea26469706673582212200b82d4c4246de76c2b1d60f7a86c89502adbbf3d2c32613d8bf5307be38c7ac464736f6c63430008130033",
  "linkReferences": {},
  "deployedLinkReferences": {}
}